:020000040800F2
:100000000006002001010008071B0008371800083F
:10001000051B00080F020008A126000800000000D0
:100020000000000000000000000000001321000894
:100030002902000800000000891D00082F21000887
:100040001B0100081B0100081B0100081B01000820
:100050001B0100081B0100081B0100081B01000810
:100060001B0100081B0100081B0100081B01000800
:100070001B0100081B0100081B0100081B010008F0
:100080001B0100081B0100081B0100081B010008E0
:100090001B0100081B0100081B0100081B010008D0
:1000A00095210008B9210008AD210008A121000810
:1000B0001B0100081B0100081B0100081B010008B0
:1000C0001B0100081B0100081B0100081B010008A0
:1000D0001B01000889260008952600081B0100085E
:1000E0001B0100081B0100081B010008DFF80CD0F1
:1000F00000F06CF8004800479D2E00080006002024
:100100000648804706480047FEE7FEE7FEE7FEE7B1
:10011000FEE7FEE7FEE7FEE7FEE7FEE791210008C7
:10012000ED000008202A04DB203A21FA02F0002129
:10013000704721FA02F3D040C2F1200291400843F7
:1001400019467047D2B201E000F8012B491EFBD2DC
:1001500070470022F6E710B513460A4604461946D2
:10016000FFF7F0FF204610BD2DE9F05F05460020A7
:1001700092469B4688460646814640241BE0284618
:10018000414647462246FFF7CDFF53465A46C01A1E
:10019000914110D311461846224600F029F82D1A35
:1001A00067EB01084F4622460120002100F020F8AD
:1001B00017EB00094E41201EA4F10104DFDC484684
:1001C00031462A464346BDE8F09F0000064C074DE5
:1001D00006E0E06840F0010394E807009847103417
:1001E000AC42F6D3FFF786FF4033000860330008C7
:1001F000202A04DB203A00FA02F1002070479140E7
:10020000C2F1200320FA03F3194390407047FEE740
:1002100070B50C46054601F017FE20EA0401284699
:10022000BDE8704002F03EBA704772B6FEE710B506
:1002300090F821100022022905D00421816380F862
:100240002020012010BD01680B6823F00E030B6015
:1002500001680B6823F001030B6090F84030C46B19
:10026000012101FA03F3636080F8211080F8202057
:10027000104610BD10B590F821100024022903D0BB
:100280000421816301243DE001680A6822F00E0226
:100290000A6001680A6822F001020A601A4A0168CD
:1002A000914201D1012121E0174A1432914201D13A
:1002B00010211BE0144A2832914201D1891515E022
:1002C000114A3C32914201D189140FE00E4A50325A
:1002D000914202D14FF4803108E00B4A64329142DE
:1002E00002D14FF4801101E04FF08071064A083AC4
:1002F0005160012180F82110002180F82010416B0D
:1003000001B18847204610BD0800024070B5044680
:1003100000F004F90546601C02D00448007804444B
:1003200000F0FCF8401BA042FAD370BD0C00002086
:100330002DE9F84FDFF8B8910024A9F1040B23460A
:100340000F2709F1040AABF1040EC9E00125A5400D
:100350002A40AA427DD1674ED1F804C0ACEB060812
:10036000B44532D014DCBCF1030F3AD009DCBCF147
:10037000000F2AD0BCF1010F1CD0BCF1020F31D10B
:100380001DE0BCF1110F17D0BCF1120F2AD119E0FA
:10039000B8F5881F19D006DCB8F5803F15D0B8F540
:1003A000801F1FD111E0B8F5001F0ED0B8F5041F53
:1003B00018D10AE0CB6815E0CB681B1D12E0CB68B2
:1003C00008330FE0CB680C330CE08B682BB1012BAA
:1003D0004FF0080303D0456104E0042302E0056107
:1003E00000E00023FF2A01D8064601E000F10406E0
:1003F0004FEA840501D9A5F12005D6F8008007FA57
:1004000005FC28EA0C0803FA05F548EA0508C6F8D1
:1004100000804D68ED0062D5374DAE6946F00106AB
:10042000AE61AD6924F0030605F001050095334D7A
:1004300006EB050CDCF80850A607360F07FA06F89D
:1004400025EA0805DFF8B880404503D14FF00008E1
:1004500017E044E0DFF8AC80404502D14FF00108DE
:100460000FE0DFF8A480404502D14FF0020808E019
:10047000DFF89880404502D14FF0030801E04FF0CB
:10048000040808FA06F848EA0508CCF808804D6820
:10049000D9F80060ED024D4601D5164300E09643C1
:1004A0002E604D68DAF80060AD02554601D516435E
:1004B00000E096432E604D68DBF80060AD035D46BA
:1004C00001D5164300E096432E604D68DEF80060CB
:1004D000ED03754601D5164300E096432E60641C7B
:1004E0000D682A46E5407FF431AFBDE8F88F000083
:1004F00008040140000011100010024000000140FB
:1005000000080140000C01400010014000140140AF
:100510000AB1016170470904FBE7000001488068E7
:10052000704700000C0000200248816802781144E6
:10053000816070470C000020074810B5016841F049
:1005400010010160032000F075F80F2000F006F89C
:1005500000F024F8002010BD0020024070B50D4DC1
:1005600004464FF47A712878B1FBF0F00A49096823
:10057000B1FBF0F000F023FC48B9102C07D20022A8
:100580002146501E00F036F800206C6070BD01203E
:1005900070BD00000C000020180000200C4808B5B9
:1005A000816941F001018161816901F001010091DE
:1005B000C16941F08051C161C06900F08050009074
:1005C0000448416821F0E06141F00071416008BDDC
:1005D0000010024000000140002809DB00F01F026B
:1005E000012191404009800000F1E020C0F8001195
:1005F00070470000F0B40E4B1B680C46C3F3022397
:10060000C3F10705042D00D90425191D072901D2BE
:10061000002300E0DB1E012606FA05F1491E2140F9
:1006200099409E40761E16403143F0BC02F070B8EF
:100630000CED00E0064900F0070208684FF6FF03E2
:10064000184040EA0220034A104308607047000047
:100650000CED00E00000FA052DE9F0470F4605001B
:1006600061D0434E306800F00700B84209D23068CC
:1006700020F0070038433060306800F00700B842CF
:1006800051D128683B4C810712D5400703D56068DB
:1006900040F4E06060602878000703D5606840F4AB
:1006A000605060606068A96820F0F00008436060F6
:1006B0002878C00728D06868012810D0216802284F
:1006C00010D0890700292EDA616821F00301014367
:1006D0006160FFF723FF804641F288390DE0216811
:1006E0008903EFE78901EDE7FFF718FFA0EB0801A9
:1006F000494502D90320BDE8F0876068696800F0C9
:100700000C00B0EB810FEFD1306800F00700B84269
:100710000BD9306820F0070038433060306800F0B3
:100720000700B84201D00120E5E72878400705D549
:100730006068E96820F4E06008436060287800079A
:1007400006D56068296920F4605040EAC100606005
:1007500000F038F86168084AC1F30311515CC840E1
:100760000649086006480068FFF7F8FE0020C2E767
:10077000002002400010024026330008180000202C
:10078000100000200448054900684968044AC1F384
:100790000221515CC8407047180000200010024040
:1007A000363300080448054900684968044AC1F323
:1007B000C221515CC8407047180000200010024060
:1007C000363300080E4A51680E4801F00C03042B22
:1007D00011D0082B0FD10C48C1F38343C903C05C6F
:1007E0000AD55168084AC1F34041921E515C054A3E
:1007F0005043B0FBF1F07047044948437047000094
:100800000010024000127A001633000800093D0073
:100810002DE9F84F040070D02078C04DC00749D0B2
:100820006868C0F38100012807D06868C0F38100C0
:10083000022809D16868C00306D52868800339D525
:1008400060680028E7D035E06068B0F5803F0BD0E5
:1008500010B1B0F5A02F11D0286820F480302860A6
:10086000286820F4802002E0286840F48030286066
:10087000606890B1FFF752FE06460AE0286840F42F
:1008800080202860F0E700BFFFF748FE801B642847
:1008900073D828688003F7D50CE0FFF73FFE0646C3
:1008A00005E000BFFFF73AFE801B6428F0D82868F7
:1008B0008003F7D420789A4E80074FF001094FF05B
:1008C000000839D5686810F00C0F07D06868C0F3CD
:1008D0008100022809D16868C00306D4286880070F
:1008E00014D52069012808D110E02069B0B1C6F8FC
:1008F0000090FFF713FE074605E00AE1FFF70EFE42
:10090000C01B0228C4D828688007F7D52868616909
:1009100020F0F80040EAC10028600DE0C6F8008031
:10092000FFF7FCFD074604E0FFF7F8FDC01B0228B7
:1009300023D828688007F7D4207800072CD5794879
:10094000A169D9B1C0F80090FFF7E8FD074604E0BF
:10095000FFF7E4FDC01B02280FD8686A8007F7D5AF
:1009600071484FF4FA510068B0FBF1F0009000BFFD
:100970000098411E0091FAD20EE080E0C0F800809D
:10098000FFF7CCFD074604E0FFF7C8FDC01B0228B7
:1009900075D8686A8007F7D42078400760D5E86981
:1009A0000027C00008D4E86940F08050E861E86999
:1009B000012700F0805000905C480168C90513D4FD
:1009C0000168834641F480710160FFF7A7FD82460C
:1009D00006E000BFFFF7A2FDA0EB0A0064284ED896
:1009E000DBF80000C005F5D5E06801280AD008B1A1
:1009F000052813D0286A20F001002862286A20F018
:100A0000040002E0286A40F001002862E06841F238
:100A1000883B98B1FFF782FD82460BE0286A40F0E0
:100A200004002862EEE700BFFFF778FDA0EB0A01A3
:100A300059455AD8286A8007F6D50CE0FFF76EFDB5
:100A4000824605E0FFF76AFDA0EB0A0159454CD844
:100A5000286A8007F6D41FB1E86920F08050E86169
:100A6000E06988B36968C1F38101022944D0022892
:100A7000C6F8608004D0FFF751FD044638E034E04A
:100A8000FFF74CFD074604E0FFF748FDC01B0228B6
:100A90002BD828688001F7D4206AB0F5803F05D1B3
:100AA0006868A16820F4003008436860D4E9080150
:100AB0000843696821F4741108436860C6F86090BF
:100AC000FFF72CFD044606E025E000BFFFF726FDFA
:100AD000001B022809D828688001F7D51BE000BF59
:100AE000FFF71CFD001B022802D90320BDE8F88F88
:100AF00028688001F4D40EE00128F7D06868226AE3
:100B000000F48031914204D1616A00F4701088428F
:100B100001D00120EAE70020E8E7000000100240D1
:100B20000000424280044242180000200070004051
:100B300070B5040009D0606A002540B12561656187
:100B4000A56294F8510040B10CE0012070BD6068CE
:100B5000B0F5827FF4D0E561F2E784F8505020468A
:100B600000F040F8022084F851002068016821F06C
:100B700040010160A088218900F4827001F40441E1
:100B80000843A18901F400610843217C01F00201BE
:100B90000843217D01F001010843218B01F400711C
:100BA0000843217F01F03801084394F8201001F038
:100BB00080010843218D01F4005108432168086039
:100BC000A069042101EA1040216848602068C169D9
:100BD00021F40061C1616565012084F851000020A5
:100BE00070BD000030B585B00024009401940294DB
:100BF000039400681549884225D11548C16941F41C
:100C00008041C161C16901F480410491816941F071
:100C10000801816180690F4D00F0080004904FF4D5
:100C2000204000900220019003200390694628464E
:100C3000FFF77EFB4FF48040CDE90004694628466B
:100C40000294FFF775FB05B030BD0000003800408E
:100C500000100240000C01402DE9F84F984616465E
:100C60008A460446FFF75AFC814694F85100012851
:100C70001ED1BAF1000F73D0002E71D094F850003D
:100C8000012815D0012784F85070032084F8510002
:100C900000256565C4F830A0A686E686A563A5870D
:100CA000E58765642564A068B0F5004F03D00CE0CB
:100CB0000220BDE8F88F2068016821F04001016042
:100CC0002068016841F4804101602068016849069C
:100CD00003D4016841F040010160E068B0F5006FA5
:100CE000606803D048B3012E27D047E008B1012E39
:100CF0001FD1206B21680088C86006E020688168E9
:100D0000890709D5216B0988C160206B801C20638D
:100D1000E08E401EE0860CE0FFF700FCA0EB09012E
:100D2000414503D3B8F1FF3F03D035E0B8F1000FE0
:100D300032D0E08E0028E1D123E0206B21680078DA
:100D4000087306E02068816889070AD5216B097855
:100D50000173206B401C2063E08E401EE0860DE096
:100D60002BE0FFF7DBFBA0EB0901414503D3B8F112
:100D7000FF3F03D010E0B8F1000F0DD0E08E002847
:100D8000E0D14A464146204601F030F908B1202022
:100D90006065A06830B109E084F8517084F8505063
:100DA000032086E72068C1688068009084F851704D
:100DB00004F8505F60680028F3D0012079E710B58F
:100DC000401EB0F1807F01D3012010BD4FF0E02420
:100DD00060610F21601701F09BFC0020A0610720DB
:100DE0002061002010BD70477047000070B590F87A
:100DF0003C20012A26D0012480F83C40022280F8C1
:100E00003D2003685A689D6822F070060A683243E4
:100E10005A600D4B02689A4208D0B2F1804F05D05B
:100E20000A4B9A4202D00A4B9A4204D1496825F0F3
:100E300080031943916080F83D40002180F83C1008
:100E4000084670BD022070BD002C01400004004027
:100E50000008004010B5040003D094F83D0010B124
:100E600007E0012010BD002084F83C00204600F07F
:100E70001FF8022084F83D00211D206801F0A2F92E
:100E8000012084F8460084F83E0084F83F0084F88E
:100E9000400084F8410084F8420084F8430084F85C
:100EA000440084F8450084F83D00002010BD000097
:100EB00008B5234A01682348914229D1816941F448
:100EC000006181618069002200F400600090114699
:100ED0001820FFF78FFB1820FFF77EFB002211463A
:100EE0001920FFF787FB1920FFF776FB0022114638
:100EF0001A20FFF77FFB1A20FFF76EFB0022114636
:100F00001B20FFF777FBBDE808401B20FFF764BB01
:100F1000B1F1804F0BD00C4A914207D1C16941F029
:100F20000201C161C06900F00200009008BDC16902
:100F300041F00101C161C06900F00100F5E7000066
:100F4000002C0140001002400004004070B504462F
:100F500090F83C000025012817D0012684F83C6059
:100F6000022084F83D002068826822F0770222F493
:100F70007F4282600868502838D00DDC20284FD08E
:100F800005DC90B3102811D14AE0022070BD302852
:100F900046D040280AD13BE060282FD070280DD0E1
:100FA000B0F5805F03D0B0F5005F12D0012584F862
:100FB0003D60002084F83C00284670BDCB68D1E934
:100FC0000121206801F047F92068816841F077012C
:100FD00009E0CB68D1E90121206801F03CF92068E3
:100FE000816841F480418160E1E719E0CA6849689D
:100FF000206801F0E5F95021206806E0CA684968D8
:10100000206801F0EEF96021206801F02EF9CEE7AA
:10101000CA684968206801F0D3F940212068F4E7E4
:10102000226801461046F0E770472DE9F04104467A
:101030000068C66805694FF00007A90713D5B10716
:1010400011D5F91E01610120207720688069800791
:10105000204602D0FFF7E8FF04E000F0B1F8204698
:1010600000F043F92777680716D5700714D5216873
:101070006FF004000861022020772068806910F476
:10108000407F204602D0FFF7CFFF04E000F098F841
:10109000204600F02AF92777280715D5300713D501
:1010A00021686FF008000861042020772068C0697B
:1010B0008007204602D0FFF7B7FF04E000F080F879
:1010C000204600F012F92777E80616D5F00614D569
:1010D00021686FF010000861082020772068C0693F
:1010E00010F4407F204602D0FFF79EFF04E000F09E
:1010F00067F8204600F0F9F82777E80708D0F007EE
:1011000006D021686FF001000861204600F03CF92C
:10111000280608D5300606D521686FF080000861E2
:101120002046FFF760FE680608D5700606D52168E0
:101130006FF040000861204600F027F9A8060AD5A4
:10114000B00608D521686FF0200008612046BDE890
:10115000F041FFF749BEBDE8F081000010B586B050
:10116000002100910191029103910368114902222B
:101170001148B3F1804F13D0104CA3420ED18B69AC
:1011800043F004038B61896901F004010491C021DB
:10119000CDE9001269460392FFF7CAF806B010BD08
:1011A0008B6943F004038B61896901F004010491A8
:1011B0000121EDE70010024000080140000400405A
:1011C000704770B5044690F83C0000260D46012893
:1011D0000FD0012084F83C006AB1042A1DD0082AEF
:1011E0002FD00C2A3FD00126002084F83C00304646
:1011F00070BD022070BD206801F040F82068816950
:1012000041F0080181612068816921F00401816158
:10121000206881692A69114311E0206801F056F8BD
:101220002068816941F4006181612068816921F44D
:1012300080618161206881692A6941EA02218161B6
:10124000D2E7206801F06EF82068C16941F008011A
:10125000C1612068C16921F00401C1612068C169D0
:101260002A69114311E0206801F088F82068C169FB
:1012700041F40061C1612068C16921F48061C161EC
:101280002068C1692A6941EA0221C161ACE710B551
:10129000040003D094F83D0010B107E0012010BD18
:1012A000002084F83C00204600F01EF8022084F85C
:1012B0003D00211D206800F085FF012084F84600D4
:1012C00084F83E0084F83F0084F8400084F8410030
:1012D00084F8420084F8430084F8440084F8450010
:1012E00084F83D00002010BD7047704710B50446DB
:1012F000022249B104290ED0082913D094F84100E4
:10130000012816D0012010BD94F83E000128F9D123
:1013100084F83E200FE094F83F000128F2D184F8D1
:101320003F2008E094F840000128EBD184F84020E9
:1013300001E084F841200122206800F07FFF0F497E
:101340002068884203D1426C42F400424264206823
:10135000884208D0B0F1804F05D00949884202D0B8
:101360000849884204D1816801F00701062903D0A9
:10137000016841F001010160002010BD002C014016
:1013800000040040000800407047704770477047F5
:10139000F8B5016804460868CA684B6910F00F0F79
:1013A0004FF0000559D003F0010602F4907737435F
:1013B00065D0C10705D0D10503D5616C41F00101AD
:1013C0006164410705D5D90703D0616C41F0020182
:1013D0006164810705D5D90703D0616C41F0040130
:1013E0006164010707D502F02001314303D0616C2D
:1013F00041F008016164616C00293AD0800604D58F
:10140000900602D5204601F02DF820684069616CF5
:10141000C0F38010090700D460B3204600F0FBFF42
:1014200020684069400621D52068143050E8001F2C
:1014300021F0400140E80012002AF5D1E06BA8B18C
:101440006D494163E06BFEF715FF002811D0E06B9A
:10145000416B01B0BDE8F040084783060FD5930605
:101460000DD52046BDE8F84000F0FCBF2046FFF750
:101470008EFFF8BD2046FFF78AFF6564F8BD266B36
:101480002023012E7CD1C6067AD5D60678D50868E9
:101490004868009048694FF00206400640D5E16B6D
:1014A000086840680004000CE8D0A28D8242E5D9AB
:1014B000E085886920282DD020680C3050E8001F76
:1014C00021F4807140E80012002AF5D12068143020
:1014D00050E8001F21F0010140E80012002AF5D178
:1014E0002068143050E8001F21F0400140E800124D
:1014F000002AF5D184F84230256320680C3050E88A
:10150000001F21F0100140E80012002AF5D1E06B25
:10151000FEF78DFE6663A08DE18D401A81B22AE050
:10152000A08DE18D401A81B2E08D0028A6D000295F
:10153000A4D022680C3252E8000F20F4907042E8E8
:101540000007002FF5D12068143050E8002F22F05A
:10155000010240E80027002FF5D184F842302563CE
:1015600020680C3050E8002F22F0100240E80023E1
:10157000002BF5D166632046FFF708FFF8BDFFE7B3
:1015800005062BD5150629D594F841002128F5D15B
:10159000A068B0F5805F01D12069B0B1206A411C1C
:1015A0002162216800784860E08C401E0004000C35
:1015B000E084E3D12068C16821F08001C160206827
:1015C000C16841F04001C160D8E7206A0088C0F3DB
:1015D00008004860206A801C2062E5E74006CDD5FF
:1015E0005006CBD5CA68204622F04002CA6084F873
:1015F000413000F01FF9C1E70724000870B504006E
:1016000004D094F84100002510B106E0012070BD1F
:1016100084F84050204600F023F8242084F841004C
:101620002068C16821F40051C160204600F07CFFB1
:101630002068016921F4904101612068416921F02D
:101640002A0141612068C16841F40051C1606564AC
:10165000202084F8410084F842006563002070BDBA
:1016600070B586B0002400940194029403942E4E29
:1016700003682E49022003222D4DB34226D18B69E7
:1016800043F480438B618B6903F4804304938B693B
:1016900043F004038B618969039201F00401049112
:1016A0000102CDE9001069462846FEF741FE2815E3
:1016B000CDE90004694628460294FEF739FE00226F
:1016C00011462520FEF796FF252028E0194EB3424B
:1016D00027D1CB6943F40033CB61CB6903F40033EA
:1016E00004938B6943F004038B618969039201F0D1
:1016F000040104910421CDE9001069462846FEF753
:1017000017FE0820CDE90004694628460294FEF73A
:101710000FFE002211462620FEF76CFF2620FEF762
:101720005BFF06B070BD00000038014000100240B1
:10173000000801400044004090F84230202B01D0C6
:101740000220704721B11AB10023036300F048BFA3
:101750000120704700680B4B01210B4A984205D1CC
:10176000117009490422891C084808E0084B984276
:1017700007D15170044905480422891D4830FFF7FC
:10178000DBBF7047003801400000002070010020DE
:10179000004400402DE9F843044690F84100984683
:1017A00016460D46202802D00220BDE8F88385B1F8
:1017B0007EB100206064212084F84100FEF7AEFE77
:1017C000A6848146E684A0682027B0F5805F02D019
:1017D00003E00120E9E7206910B12E4600250EE064
:1017E00000260CE08021204600F015FFA8B9C6B104
:1017F00016F8010B21684860E08C401EE084E08C04
:101800004B464FF00002CDF800800028EAD14FF09F
:101810004001204600F0FFFE40B184F841700320F3
:10182000C3E735F8020BC0F30800E3E784F8417022
:101830000020BAE77047FEE730B585B00020009081
:101840000190029003901648816941F02001816166
:10185000816901F020010491816941F004018161F5
:10186000816901F004010491816941F008018161FD
:1018700080690C4D00F008004FF45E740490002263
:1018800021462846FEF744FE01210320CDE902103F
:10189000CDE9004169462846FEF74AFD05B030BD56
:1018A00000100240000C01400F4810B50D490160C6
:1018B0004FF48271416000218160C1604FF4007279
:1018C0000161C0E90512C1610162416281620A21C0
:1018D000C162FFF72DF9002803D0BDE81040FEF7E4
:1018E000A4BC10BD003800404000002010B586B0F8
:1018F000002417480094019402940394049413491B
:10190000059401604721C0E9011442F20F71C0E95A
:10191000031444618461FFF79DFA08B1FEF785FC6A
:101920004FF48050009069460948FFF70FFB08B15B
:10193000FEF77BFC049404A905480594FFF756FACA
:10194000002801D0FEF771FC06B010BD002C01404C
:101950009800002010B58EB00024079408940994D4
:101960000A940B941C2168460C94FEF7F2FB1E4867
:101970004FF0804101604721C0E9011444F61F6126
:10198000C0E903148461FFF765FA08B1FEF74DFC66
:101990004FF48050079007A91348FFF7D7FA08B112
:1019A000FEF743FC1048FFF772FC08B1FEF73DFC60
:1019B0000B940BA90C480C94FFF718FA08B1FEF72A
:1019C00034FC6020CDE900040294002269460648F8
:1019D0000494FFF7F6FB08B1FEF727FC0248FFF777
:1019E000BDFB0EB010BD0000E000002010B58EB0B1
:1019F00000240794089409940A940B941C216846C7
:101A00000C94FEF7A6FB2248204901604721C0E95B
:101A1000011449F63F41C0E903148461FFF71AFA43
:101A200008B1FEF702FC4FF48050079007A9184850
:101A3000FFF78CFA08B1FEF7F8FB1548FFF727FC13
:101A400008B1FEF7F2FB0B940BA911480C94FFF7B9
:101A5000CDF908B1FEF7E9FB6020CDE9000402945E
:101A6000002269460A480494FFF7ABFB08B1FEF771
:101A7000DCFB042269460648FFF7A3FB08B1FEF72A
:101A8000D4FB0348FFF76AFB0EB010BD0004004012
:101A9000280100200C4810B50A4901604FF4E131DB
:101AA0004160002181600C22C160C0E904128161A3
:101AB000C161FFF7A3FD002803D0BDE81040FEF789
:101AC000B4BB10BD00380140700100200C4810B5B7
:101AD0000A4901604FF4E1314160002181600C222C
:101AE000C160C0E904128161C161FFF787FD002870
:101AF00003D0BDE81040FEF798BB10BD0044004085
:101B0000B8010020FEE7FEE703211420FEF780BBAA
:101B100010B54021152000F0C5FD0120FEF7F6FBB1
:101B2000142000F091F9800703D10321142000F064
:101B3000F1FABDE81040152000F086B970B50646F0
:101B4000082188B000240846FEF762FB00210D2022
:101B500000F0A8FD80210E20FEF75AFB93208DF89F
:101B6000040020208DF8050006A801AB0090022299
:101B700019460C2000F017F805000DD1002101A82E
:101B8000425C7254425C491C5440C9B20429F7D3E8
:101B9000405CA04200D0FE2580210E2000F0BAFA61
:101BA00008B0284670BD2DE9FF5F0027FE25DDF84F
:101BB00038A016468B468146B8460C2805D0B9F1A8
:101BC0000E0F05D11227102001E077273020804624
:101BD00047F08001022000F065FD80210420FEF71F
:101BE00017FB0021012000F05DFD80210A2000F09C
:101BF00091FA002405E01BF80410092000F052FDC2
:101C0000641CB442F7D34946012000F04BFDB9F102
:101C10000C0F03D180210D2000F07CFA41F2707688
:101C2000042000F011F90446761E04D0E00702D12A
:101C300014EA080FF4D080210D20FEF7E9FA36B13E
:101C4000062000F001F910F01B0F0CD0FE258021BA
:101C50000C2000F05FFA0021012000F023FD04B009
:101C60002846BDE8F09F00253C40E00700D0FF2556
:101C7000B9F10C0FEBD10A2000F0E6F804460C2075
:101C800000F0E2F810F007004FEAC40101D0083973
:101C90000144CAF8001024B1122C04D912240026E1
:101CA00003E00124FBE7002605E0092000F0CCF862
:101CB00003998855761CA642F7D3C8E730B50C4681
:101CC0000546082187B00846FEF7A2FA07210D2035
:101CD00000F0E8FC0321142000F01CFA06A801AB78
:101CE00000908DF80450012219460C20FFF75BFF8D
:101CF00010B90699102902D0FE2007B030BD9DF81A
:101D0000041021709DF805106170F6E770B501228E
:101D10001C4D540221462846FEF7FAFB0A2001F02A
:101D200039F8002221462846FEF7F2FB642001F034
:101D300031F8012221462846FEF7EAFB0A2001F08D
:101D400029F80F21012000F0ADFC642001F022F8F9
:101D50003D21112000F0A6FC1E212D2000F0A2FC48
:101D600000212C2000F09EFC8D212A2000F09AFCFE
:101D70003E212B2000F096FC4021152000F092FC23
:101D8000002070BD000C01407047000070B5164D7A
:101D90004FF48074002221462846FEF7B9FBFF234A
:101DA0000422AA211148FEF757FF012221462846A6
:101DB000FEF7AEFB3220FEF7A9FAFFF7A7FF0A20D5
:101DC000FEF7A4FAFFF7A2FF0A20FEF79FFAFFF73B
:101DD0009BFE0A20FEF79AFAFFF79AFEBDE87040D4
:101DE00003A000F085BC0000000C01404000002072
:101DF000524649442D4D46524335323220696E6970
:101E00007420737563636565640D0A73746172741D
:101E100020746F206465746563742063617264214B
:101E20000D0A000007490A68D2439207FBD4054A0D
:101E3000121D10600868C043C007FBD11068C0B213
:101E4000704700000838004070B5124E04464FF449
:101E50008075002229463046FEF75AFB0A20FEF71D
:101E600055FA7E2000EA440040F08000FFF7DAFFD8
:101E70000A20FEF74BFA0020FFF7D4FF04460A20A1
:101E8000FEF744FA012229463046FEF741FB204680
:101E900070BD0000000C014038B52D495220FFF7FD
:101EA0000DFF002853D12A480178042908D00229BF
:101EB0000AD044290CD0082912D044290AD011E0B4
:101EC000407878B923A00EE0407858B925A00AE000
:101ED000417819B14078032830D003E024A002E013
:101EE000407848B326A000F003FC1948001DFFF716
:101EF00025FE00282BD124A000F0FAFB144C241D51
:101F0000E0780090A3786278217822A000F0F0FBBE
:101F1000207800F00F01000900EB800001EB400089
:101F2000C1B229290CD050290AD01DA000F0E0FB35
:101F3000BDE8384000F038BF20A0D4E721A0D2E7A8
:101F400023A000F0D5FBBDE8384000F063BF38BDEA
:101F50001C0000200D0A4D464F6E652D5335300D87
:101F60000A0000004D464F6E652D533730000000CB
:101F70004D462D556C7472614C69676874000000A1
:101F8000556E6B6E6F776E004361726420496420FA
:101F900069733A0025642564256425640D0A0000F0
:101FA000696E76616C6964206964203A2564EFBCCF
:101FB0008C6661696C64210D0A0000004D462D504D
:101FC000726F00004D462044657369726500000021
:101FD00076616C6964206964203A2025642C207342
:101FE000756363656564210D0A000000F8B5154648
:101FF0000E460B46009204460122022100F010F822
:1020000040B93346002280212046009500F008F8B0
:10201000002804D0606D40F0200060650320F8BD0A
:102020002DE9F8431E46914688460446089DFEF772
:1020300075FA401B351AFEF771FA07462548006805
:10204000C0F3CB30684338E0701C37D0FEF766FA37
:10205000C01BA84203D215B1009860B32CE02068E1
:10206000416821F0E00141606068B0F5827F0BD1EA
:10207000A068B0F5004F02D0B0F5806F04D12068A1
:10208000016821F040010160A06AB0F5005F09D14C
:102090002068016821F4005101602068016841F462
:1020A00000510160012084F85100002084F85000A4
:1020B0000320BDE8F8830025401E00902068816859
:1020C00038EA010004D000214945BDD10020F0E7E5
:1020D0000121F9E718000020006829B1042905D082
:1020E000082905D0026470474263704782637047D5
:1020F000C26370470068002229B1042905D008296D
:1021000005D0026470474263704782637047C263C0
:102110007047704770B50C460546FFF795FE2043A3
:1021200040EA04012846BDE8704000F0BBBAFEF763
:10213000FBB930B58FB028216846FEF70AF81421A4
:102140000AA8FEF706F801210804CDE900100024D2
:10215000029402250491CDE907504FF4E010099054
:102160006846FEF755FB08B172B6FEE70F20CDE9D1
:102170000A054FF48060CDE90C4002210AA80E94B4
:10218000FEF76AFA002801D072B6FEE70FB030BD44
:10219000704700000148FEF748BF0000980000208B
:1021A0000148FEF742BF0000980000200148FEF7FA
:1021B0003CBF0000980000200148FEF736BF000039
:1021C00098000020F0B50268194B1A4C1A4D4FF0D8
:1021D0008047984205D0B84203D0A04201D0A8421F
:1021E00003D122F070064A683243984205D0B842C3
:1021F00003D0A04201D0A84203D122F44074CA689F
:1022000022434C6922F08002224302608A68C26243
:102210000A688262984201D1096901630121416122
:102220000169C90703D0016921F001010161F0BD15
:10223000002C0140000400400008004010B501F0EF
:102240001F030121046A99408C430462016A9A4089
:102250001143016210BD10B5846842EA032224F4E0
:102260007F440A432243826010BD826822F07002DC
:102270000A4342F0070181607047000030B5036AED
:10228000026A22F0010202624268846924F0730546
:102290000C682C4323F002058B682B430A4DA8429F
:1022A0000BD123F00805CB6822F440722B434D6913
:1022B00023F0040315438A692A4342608461496814
:1022C0004163036230BD0000002C014030B5026A5A
:1022D000036A23F010030362436884690D6824F4E1
:1022E000E64444EA05248D6822F0200242EA051201
:1022F0000B4DA8420ED1CD6822F0800242EA0512B1
:102300004D6923F4406343EA85038D6922F040025E
:1023100043EA85034360846149688163026230BD9A
:10232000002C014030B5036A026A22F48072026216
:102330004268C46923F4007324F073050C682C43CD
:102340008D6843EA05230C4DA8420ED1CD6823F4D5
:10235000006343EA05234D6922F4405242EA051224
:102360008D6923F4806342EA05124260C4614968C2
:10237000C163036230BD0000002C014030B5046A27
:10238000026A22F4805202624268C3690D6823F433
:10239000E64343EA05238D6824F4005444EA0534F7
:1023A000064DA84204D14D6922F4804242EA8512CA
:1023B0004260C36149680164046230BD002C014081
:1023C00010B5036A046A24F001040462846924F0ED
:1023D000F00444EA021423F00A020A438461026210
:1023E00010BD10B5036A046A24F010040462846905
:1023F00023F0A00324F4704444EA023243EA0111BA
:102400008261016210BD10B5406A0021C185C1849E
:10241000FEF7BDFF10BD01680C3151E8002F22F41A
:10242000907241E80023002BF5D10168143151E886
:10243000002F22F0010241E80023002BF5D1016BAF
:10244000012909D101680C3151E8002F22F0100256
:1024500041E80023002BF5D1202180F84210002113
:102460000163704708B590F84210222901D002207C
:1024700008BD82684FF480539A4201D1016921B1AD
:10248000816A9A421BD04AB10AE00268816A5268A6
:10249000C2F308020A80816A891C08E0026972B1ED
:1024A0000268526802F07F020A70816A491C8162E8
:1024B000C18D491E0904090CC18503D01BE00268C7
:1024C0005268F1E70168CA6822F02002CA60016818
:1024D000CA6822F48072CA6001684A6922F0010267
:1024E0004A61202180F8421000214163026B012AD9
:1024F00003D0FFF72FF9002008BD016301680C31FC
:1025000051E8002F22F0100241E80023002BF5D102
:1025100001680A68D20602D50A6849680091818D6F
:10252000FEF734FFE7E7000070B504460068016974
:10253000E26821F44051114301612169A068084318
:10254000616908432168CA6841F20C639A430243F7
:10255000CA6020684169A26921F440711143416158
:102560001E492068884202D1FEF71CF901E0FEF7FF
:1025700009F900EBC00101EB0012606864218000E2
:10258000B2FBF0F3B3FBF1F36FF018067343B2FB49
:10259000F0F5B2FBF0F605EB8305322303EB0515EE
:1025A000B5FBF1F5B6FBF1F605F0F00505EB061508
:1025B000B2FBF0F6B2FBF0F0B0FBF1F06FF01802F6
:1025C000504306EB800003EB0010B0FBF1F02168F4
:1025D00000F00F002844886070BD00000038014002
:1025E00081628285C28500214164222180F84210E7
:1025F000016921B10168CA6842F48072CA60016849
:102600004A6942F001024A610068C16841F0200154
:10261000C160002070472DE9F843984617460D46E3
:102620000446089E24E0701C22D0FDF777FFA0EB43
:102630000800B0421AD8CEB12068C168490717D542
:10264000802D15D0402D13D00168C94309070FD440
:1026500001680025406800902046FFF7DCFE082056
:10266000606484F840500120BDE8F8830320FBE754
:102670002068006835EA000004D00020B842D2D0BB
:102680000020F1E70120F9E70148FEF781BE0000D4
:10269000700100200148FEF77BBE0000B801002059
:1026A000FEE700002DE9F041104E0F4604464FF4BE
:1026B0008075002229463046FDF72AFF0A20FDF7E3
:1026C00025FE7E2000EA4400FFF7ACFB0A20FDF760
:1026D0001DFE3846FFF7A6FB0A20FDF717FE294628
:1026E0003046BDE8F0410122FDF712BF000C014069
:1026F0000FB4054B10B503A9044A029800F028F85E
:1027000010BC5DF814FB0000852E00083C00002082
:102710000907090E002804DB00F1E02080F800140E
:10272000704700F00F0000F1E02080F8141D7047A2
:1027300002E008C8121F08C1002AFAD1704770478A
:10274000002001E001C1121F002AFBD170470000E8
:102750002DE9FF4F8DB00F460546002606E02528DF
:102760000BD0DDE90F1290476D1C761C28780028ED
:10277000F5D111B03046BDE8F08F0024A246A14645
:102780000122EC4900E0044315F8013F203B02FA26
:1027900003F00842F7D128782A2810D06FF02F02D2
:1027A0002878A0F13001092914D80AEB8A0102EB3C
:1027B000410144F0020400EB010A6D1CF0E701CF77
:1027C0005FEA000A03D544F40054CAF1000A44F059
:1027D00002046D1C28782E2817D115F8010F44F03B
:1027E00004042A280ED06FF02F022878A0F13001BF
:1027F00009290AD809EB890102EB410100EB010923
:102800006D1CF2E757F8049B6D1C28786C280FD0DC
:1028100006DC4C2817D068280DD06A2814D104E0B3
:10282000742810D07A280FD10DE044F400140AE087
:1028300044F4801401E044F440146978814202D1E8
:1028400004F580146D1C6D1C2A786E2A1FD00CDCD8
:10285000632A31D004DC002A8BD0582A11D1A3E09E
:10286000642A68D0692A0CD165E0732A2ED004DC72
:102870006F2A73D0702A04D19BE0752A6FD0782A12
:102880006ED01046DDE90F129047761C50E1C4F37C
:102890000250022806D0032809D0042801CF09D00D
:1028A000066045E101CFF117C0E9006140E101CFC9
:1028B00006803DE106703BE117F8040B8DF800003F
:1028C00000208DF80100EB46012003E057F804BB1F
:1028D0004FF0FF3061074FF0000102D40DE008F126
:1028E0000101884649450FDA8045F8DB1BF80810DE
:1028F0000029F4D108E008F1010188468142FADBA1
:102900001BF808100029F6D1DDE90F23AAEB080017
:102910008146214600F036F9304400EB080604E019
:10292000DDE90F121BF8010B9047B8F10108F7D24F
:1029300021464846F7E00A21C4F302534FF0000B4A
:102940000891022B04D001CFC117032B09D00AE054
:10295000FF1D27F00707F7E8020108E032E01FE05B
:1029600020E000B2C117042B01D140B2C117031EF1
:1029700071F1000307DA4FF0000CD0EB0C006CEBA8
:1029800001012D2302E0230504D52B238DF82430EB
:10299000012303E0E30701D02023F7E7984658E03E
:1029A0000A2110E010210EE010204FF0000B0890DB
:1029B0000CE010214FF0000B44F004044FF0080924
:1029C000089103E008214FF0000B0891C4F3025373
:1029D000022B04D001CF0021032B06D006E0FF1DFF
:1029E00027F00707F7E8020103E080B2042B00D1CB
:1029F000C0B24FF0000823072BD5702A07D0DDF8AE
:102A000020C08CF0100C5CEA0B0C05D00EE04023CB
:102A10008DF82430012308E050EA010306D030236A
:102A20008DF824308DF8252002239846DDF820C04B
:102A30008CF0080C5CEA0B0C0BD150EA010301D1BD
:102A4000630706D530238DF824304FF00108A9F133
:102A50000109582A04D038A20B9208AA0A920BE066
:102A60003AA2F9E75B46089AFDF77EFB0B9B9B5C5D
:102A70000A9A521E0A92137050EA0102F2D10A9881
:102A8000ADEB000000F1200B600702D524F4803488
:102A900001E04FF00109D94502DDA9EB0B0000E090
:102AA000002000EB0B0141440890AAEB010AE0036F
:102AB00006D4DDE90F232146504600F063F80644B2
:102AC0004FF0000908E009A911F80900DDE90F122B
:102AD000904709F10109761CC145F4DBE0030CD5F0
:102AE000DDE90F232146504600F04CF8064404E08F
:102AF000DDE90F1230209047761C0899481E089097
:102B00000029F5DC08E00A980A990078491C0A9126
:102B1000DDE90F129047761CBBF10001ABF1010B10
:102B2000F1DC21465046DDE90F2300F019F8064498
:102B30006D1C1BE60928010030313233343536373D
:102B400038396162636465660000000030313233F9
:102B50003435363738394142434445460000000099
:102B60002DE9F041044600251E461746880404D48A
:102B700005E039462020B0476D1C641EF9D5284673
:102B8000BDE8F0812DE9F041044600251E4690463F
:102B9000C80301D5302700E02027880404D505E0CC
:102BA00041463846B0476D1C641EF9D52846BDE83D
:102BB000F081000010B50446401E032801D3002018
:102BC00010BD00210D48FFF795FA04210B48FFF7CF
:102BD00091FA21460AA0FFF78BFD0E48002100EB79
:102BE000840050F8042C0548FFF776FA00220421EF
:102BF0000248FFF771FA012010BD000028010020F3
:102C0000636F6F6C2C7370656564203A2025640ACD
:102C1000000000003000002010B50446014616A058
:102C2000FFF766FD601E032804D31BA0FFF760FDBD
:102C3000002010BD1DA0FFF75BFD00212048FFF71D
:102C400059FA04211E48FFF755FA1EA0FFF750FD60
:102C5000214621A0FFF74CFD2448042100EB84000D
:102C600050F8042C1648FFF737FA00221146144892
:102C7000FFF732FA012010BD616972436F6E64691B
:102C800074696F6E65722032342C207479706520FF
:102C90003D2025640A000000616972436F6E64691B
:102CA00074696F6E65722032360A00006169724382
:102CB0006F6E646974696F6E65722032390A000044
:102CC00028010020616972436F6E646974696F6ED8
:102CD00065722033330A0000686561740A2C7370D2
:102CE000656564203A2025640A0000003000002059
:102CF00010B500210448FEF7F9FABDE810400421A0
:102D00000148FEF7F3BA00002801002010B506A024
:102D1000FFF7EEFC00210648FFF7ECF90421044818
:102D2000FFF7E8F9012010BD73746F700A0000000E
:102D30002801002038B504460948234602220480B1
:102D4000012000900021042000F088F900200146B5
:102D5000009023460222042000F080F938BD0000D4
:102D60002600002038B50446094823460222048084
:102D7000012001460090042000F070F9002000902E
:102D8000234602220121042000F068F938BD00002A
:102D900026000020002103E000BF00BF00BF491C47
:102DA0008142F9D37047000010B5084C207840B13B
:102DB00007A0FFF79DFC0020207000F037F90120EC
:102DC00010BD08A0FFF794FC002010BD28000020D3
:102DD000646F6F7220697320636C6F7365696E67CF
:102DE0000A0000005B4552524F525D646F6F7220C3
:102DF00068617320636C6F7365642C2063616E205F
:102E00006E6F7420636C6F736520616761696E21FA
:102E100021210A0010B5094C2078012809D008A00A
:102E2000FFF766FC01202070B42000F0FFF80120BD
:102E300010BD08A0FFF75CFC002010BD280000209A
:102E4000646F6F72206973206F70656E6E696E6754
:102E50000A0000005B4552524F525D646F6F722052
:102E6000686173206F70656E65642C2063616E20ED
:102E70006E6F74206F70656E20616761696E2121CD
:102E8000210A000013B54FF0FF33012269460248C2
:102E9000FEF780FC00981CBDB8010020FDF74CFB3C
:102EA000FFF747F9FEF7C8FCFEF7FEFCFEF7F2FD60
:102EB000FEF71CFDFEF74EFDFEF798FDFEF706FE41
:102EC000FEF764FF00F0C4F8FFF712FF00F00EFAFF
:102ED000084D094C002600BFFEF7DEFF287810B130
:102EE00000F05CF92E7020780028F5D000F0AAF9E7
:102EF0002670F1E7000000200100002030B50C68CA
:102F0000C97824BA24F0FF040C43002304F00F0511
:102F1000194665F30701C4F3031565F30F21C4F3E4
:102F2000032565F31741C4F3033565F31F61B2EB65
:102F3000147F02D063F3070302E0012262F3070368
:102F40000160037130BD000010B50024C1B2C0F3B0
:102F5000072201290AD0C0F3074302290ED0032912
:102F600019D014A0FFF7C4FB204610BD12B1FFF723
:102F700051FF01E0FFF718FFC4B2F5E7C0F30740C7
:102F800000EB8000400012B1FFF7ECFE01E0FFF71C
:102F9000D1FE0124E8E74AB1000E184602D0FFF73F
:102FA0003BFE01E0FFF706FE0446DDE7FFF7AEFE5D
:102FB000FAE70000556E6B6E6F776E206465766978
:102FC00063652049443A20253032580A0000000049
:102FD00038B5154A1C46934201D10C2200E00B2261
:102FE000120742EA00500A0E40EA0230C1F30742DB
:102FF00040EA0220C1F3072240EA0210C9B20843A6
:1030000040F08071080E8DF80000080C8DF801006A
:10301000080A8DF802008DF8031064230422694623
:103020002046FEF7B7FB38BD70010020B42800D958
:10303000B4204FF4FA614843B421B0FBF1F00349E6
:1030400000F5FA7080B2096848637047E00000201C
:1030500000210148FEF74AB9E00000202DE9F05FA9
:1030600082460A98DFF8308193460F46012816D031
:103070000022082144464046FDF74AFA002210216A
:103080002046FDF745FA002220212046FDF740FAB0
:103090002046BDE8F05F00224021FDF739BA9801D3
:1030A0002D21B0FBF1F086B2002438E000254FF06E
:1030B000080987B1C5F10800C11700EB517121F073
:1030C0000701401AC0B208281ED2DFE800F0060D42
:1030D0002C333A4652542846F4E701220821404650
:1030E000FDF716FA002201E001221DE01021404602
:1030F000FDF70EFA002220214046FDF709FA0022D2
:1031000040214046FDF704FA5846FDF7FFF8B9FBA9
:10311000FAF02844C5B2082DCBD3641CA4B2B44243
:10312000C4D3BDE8F09F002208214046FDF7F0F926
:103130000122DBE7002208214046FDF7E9F90122E0
:1031400005E0002208214046FDF7E2F900221021A7
:103150004046FDF7DDF90122CDE700220821404677
:10316000FDF7D6F9002210214046FDF7D1F90122E2
:103170000CE0002200E0012208214046FDF7C8F9DA
:10318000002210214046FDF7C3F9002220214046CD
:10319000FDF7BEF90122B3E7000C01400EB50C2289
:1031A000144901A8FFF7AAFE1248801E0021C0F8AA
:1031B00002109DF80800B0B19DF8070000909DF83E
:1031C00006309DF805209DF804100BA0FFF790FA3B
:1031D000DDE90101FFF7B8FE114B00BFDDE9011287
:1031E000FFF7F6FE0EBD0FA0FFF782FA0C4B002092
:1031F000F4E700000200002041535250524F205289
:10320000656365697665643A20253032582025303B
:103210003258202530325820253032580A0000001C
:1032200070010020496E76616C696420636F6D6D7A
:10323000616E642066726F6D2061737270726F21AF
:103240000A0000000EB50B22144901A8FFF756FE34
:103250001248801F0021C0F806109DF80800B0B188
:103260009DF8070000909DF806309DF805209DF818
:1032700004100BA0FFF73CFADDE90101FFF764FE43
:10328000114B00BFDDE90112FFF7A2FE0EBD0FA03A
:10329000FFF72EFA0C4B0020F4E700000600002098
:1032A0004849333836312052656365697665643A3A
:1032B00020253032582025303258202530325820F1
:1032C000253032580A000000B8010020496E7661AE
:1032D0006C696420636F6D6D616E642066726F6DE2
:1032E00020686933383631210A00000010B5042205
:1032F00006490748FEF720FA044905480422091D3B
:10330000BDE810404830FEF717BA00000200002068
:1033100070010020010202030405060708090A0BD8
:103320000C0D0E0F10100000000000000000010244
:10333000030406070809000000000102030400005E
:103340006033000800000020400000003027000823
:10335000A033000840000020C005000040270008FE
:10336000000000000000000000000000010000005C
:10337000100000000000000000127A0000000000B1
:10338000000000000000000000000000000000003D
:10339000204E000030750000409C0000000000003E
:04000005080000ED02
:00000001FF
