:020000040800F2
:10000000C004002001010008DF0E0008ED0D00080B
:10001000DD0E0008990100089B1600080000000092
:10002000000000000000000000000000A114000813
:10003000B30100080000000061110008BD140008B1
:100040001B0100081B0100081B0100081B01000820
:100050001B0100081B0100081B0100081B01000810
:100060001B0100081B0100081B0100081B01000800
:100070001B0100081B0100081B0100081B010008F0
:100080001B0100081B0100081B0100081B010008E0
:100090001B0100081B0100081B0100081B010008D0
:1000A0001B0100081B0100081B0100081B010008C0
:1000B0001B0100081B0100081B0100081B010008B0
:1000C0001B0100081B0100081B0100081B010008A0
:1000D0001B0100081B0100081B0100081B01000890
:1000E0001B0100081B0100081B010008DFF80CD0F1
:1000F00000F040F800480047C9180008C00400207C
:100100000648804706480047FEE7FEE7FEE7FEE7B1
:10011000FEE7FEE7FEE7FEE7FEE7FEE71F15000845
:10012000ED000008D2B201E000F8012B491EFBD21D
:1001300070470022F6E710B513460A4604461946F2
:10014000FFF7F0FF204610BD30B50B4601460020FA
:100150002022012409E021FA02F59D4205D303FA89
:1001600002F5491B04FA02F52844151EA2F101020A
:10017000F1DC30BD064C074D06E0E06840F00103BD
:1001800094E8070098471034AC42F6D3FFF7B2FF6B
:100190001819000838190008FEE770B50C46054626
:1001A00001F03EF820EA04012846BDE8704001F065
:1001B00075BA704772B6FEE770B5044600F004F9F0
:1001C0000546601C02D004480078044400F0FCF8A6
:1001D000401BA042FAD370BD000000202DE9F84F6B
:1001E000DFF8B8910024A9F1040B23460F2709F189
:1001F000040AABF1040EC9E00125A5402A40AA4239
:100200007DD1674ED1F804C0ACEB0608B44532D0BE
:1002100014DCBCF1030F3AD009DCBCF1000F2AD08A
:10022000BCF1010F1CD0BCF1020F31D11DE0BCF1BB
:10023000110F17D0BCF1120F2AD119E0B8F5881FA1
:1002400019D006DCB8F5803F15D0B8F5801F1FD156
:1002500011E0B8F5001F0ED0B8F5041F18D10AE060
:10026000CB6815E0CB681B1D12E0CB6808330FE0AC
:10027000CB680C330CE08B682BB1012B4FF00803DB
:1002800003D0456104E0042302E0056100E000239F
:10029000FF2A01D8064601E000F104064FEA840572
:1002A00001D9A5F12005D6F8008007FA05FC28EA57
:1002B0000C0803FA05F548EA0508C6F800804D6801
:1002C000ED0062D5374DAE6946F00106AE61AD690D
:1002D00024F0030605F001050095334D06EB050CEF
:1002E000DCF80850A607360F07FA06F825EA0805D5
:1002F000DFF8B880404503D14FF0000817E044E034
:10030000DFF8AC80404502D14FF001080FE0DFF884
:10031000A480404502D14FF0020808E0DFF8988041
:10032000404502D14FF0030801E04FF0040808FAFD
:1003300006F848EA0508CCF808804D68D9F800604E
:10034000ED024D4601D5164300E096432E604D6800
:10035000DAF80060AD02554601D5164300E0964339
:100360002E604D68DBF80060AD035D4601D5164395
:1003700000E096432E604D68DEF80060ED037546A0
:1003800001D5164300E096432E60641C0D682A4692
:10039000E5407FF431AFBDE8F88F0000080401406C
:1003A0000000111000100240000001400008014050
:1003B000000C014000100140001401400AB101612D
:1003C00070470904FBE7000001488068704700009F
:1003D0000000002002488168027811448160704763
:1003E00000000020074810B5016841F010010160CD
:1003F000032000F067F80F2000F006F800F024F862
:10040000002010BD0020024070B50D4D04464FF491
:100410007A712878B1FBF0F00A490968B1FBF0F075
:1004200000F015FC48B9102C07D200222146501EBE
:1004300000F028F800206C6070BD012070BD000045
:10044000000000200C0000200C4808B5816941F034
:1004500001018161816901F001010091C16941F0EF
:100460008051C161C06900F080500090044841682B
:1004700021F0E06141F00071416008BD00100240D0
:1004800000000140F0B40E4B1B680C46C3F302237E
:10049000C3F10705042D00D90425191D072901D230
:1004A000002300E0DB1E012606FA05F1491E21406B
:1004B00099409E40761E16403143F0BC01F024B9AD
:1004C0000CED00E0064900F0070208684FF6FF0354
:1004D000184040EA0220034A1043086070470000B9
:1004E0000CED00E00000FA052DE9F0470F4605008D
:1004F00061D0434E306800F00700B84209D230683E
:1005000020F0070038433060306800F00700B84240
:1005100051D128683B4C810712D5400703D560684C
:1005200040F4E06060602878000703D5606840F41C
:10053000605060606068A96820F0F0000843606067
:100540002878C00728D06868012810D021680228C0
:1005500010D0890700292EDA616821F003010143D8
:100560006160FFF731FF804641F288390DE0216874
:100570008903EFE78901EDE7FFF726FFA0EB08010C
:10058000494502D90320BDE8F0876068696800F03A
:100590000C00B0EB810FEFD1306800F00700B842DB
:1005A0000BD9306820F0070038433060306800F025
:1005B0000700B84201D00120E5E72878400705D5BB
:1005C0006068E96820F4E06008436060287800070C
:1005D00006D56068296920F4605040EAC100606077
:1005E00000F038F86168084AC1F30311515CC84053
:1005F0000649086006480068FFF706FF0020C2E7CA
:100600000020024000100240FE1800080C000020EC
:10061000040000200448054900684968044AC1F301
:100620000221515CC84070470C00002000100240BD
:100630000E1900080448054900684968044AC1F3D6
:10064000C221515CC84070470C00002000100240DD
:100650000E1900080E4A51680E4801F00C03042BD5
:1006600011D0082B0FD10C48C1F38343C903C05CE0
:100670000AD55168084AC1F34041921E515C054AAF
:100680005043B0FBF1F07047044948437047000005
:100690000010024000127A00EE18000800093D0028
:1006A0002DE9F84F040070D02078C04DC00749D024
:1006B0006868C0F38100012807D06868C0F3810032
:1006C000022809D16868C00306D52868800339D597
:1006D00060680028E7D035E06068B0F5803F0BD057
:1006E00010B1B0F5A02F11D0286820F48030286018
:1006F000286820F4802002E0286840F480302860D8
:10070000606890B1FFF760FE06460AE0286840F492
:1007100080202860F0E700BFFFF756FE801B6428AA
:1007200073D828688003F7D50CE0FFF74DFE064626
:1007300005E000BFFFF748FE801B6428F0D828685A
:100740008003F7D420789A4E80074FF001094FF0CC
:10075000000839D5686810F00C0F07D06868C0F33E
:100760008100022809D16868C00306D42868800780
:1007700014D52069012808D110E02069B0B1C6F86D
:100780000090FFF721FE074605E00AE1FFF71CFE97
:10079000C01B0228C4D828688007F7D5286861697B
:1007A00020F0F80040EAC10028600DE0C6F80080A3
:1007B000FFF70AFE074604E0FFF706FEC01B02280B
:1007C00023D828688007F7D4207800072CD57948EB
:1007D000A169D9B1C0F80090FFF7F6FD074604E023
:1007E000FFF7F2FDC01B02280FD8686A8007F7D513
:1007F00071484FF4FA510068B0FBF1F0009000BF6F
:100800000098411E0091FAD20EE080E0C0F800800E
:10081000FFF7DAFD074604E0FFF7D6FDC01B02280C
:1008200075D8686A8007F7D42078400760D5E869F2
:100830000027C00008D4E86940F08050E861E8690A
:10084000012700F0805000905C480168C90513D46E
:100850000168834641F480710160FFF7B5FD82466F
:1008600006E000BFFFF7B0FDA0EB0A0064284ED8F9
:10087000DBF80000C005F5D5E06801280AD008B112
:10088000052813D0286A20F001002862286A20F089
:10089000040002E0286A40F001002862E06841F2AA
:1008A000883B98B1FFF790FD82460BE0286A40F044
:1008B00004002862EEE700BFFFF786FDA0EB0A0107
:1008C00059455AD8286A8007F6D50CE0FFF77CFD19
:1008D000824605E0FFF778FDA0EB0A0159454CD8A8
:1008E000286A8007F6D41FB1E86920F08050E861DB
:1008F000E06988B36968C1F38101022944D0022804
:10090000C6F8608004D0FFF75FFD044638E034E0AD
:10091000FFF75AFD074604E0FFF756FDC01B02280B
:100920002BD828688001F7D4206AB0F5803F05D124
:100930006868A16820F4003008436860D4E90801C1
:100940000843696821F4741108436860C6F8609030
:10095000FFF73AFD044606E025E000BFFFF734FD4F
:10096000001B022809D828688001F7D51BE000BFCA
:10097000FFF72AFD001B022802D90320BDE8F88FEB
:1009800028688001F4D40EE00128F7D06868226A54
:1009900000F48031914204D1616A00F47010884201
:1009A00001D00120EAE70020E8E700000010024043
:1009B00000004242800442420C00002000700040CF
:1009C00070B5040009D0606A002540B125616561F9
:1009D000A56294F8510040B10CE0012070BD606840
:1009E000B0F5827FF4D0E561F2E784F850502046FC
:1009F00000F040F8022084F851002068016821F0DE
:100A000040010160A088218900F4827001F4044152
:100A10000843A18901F400610843217C01F002012F
:100A20000843217D01F001010843218B01F400718D
:100A30000843217F01F03801084394F8201001F0A9
:100A400080010843218D01F40051084321680860AA
:100A5000A069042101EA1040216848602068C1694A
:100A600021F40061C1616565012084F85100002016
:100A700070BD000030B585B000240094019402944C
:100A8000039400681549884225D11548C16941F48D
:100A90008041C161C16901F480410491816941F0E3
:100AA0000801816180690F4D00F0080004904FF447
:100AB00020400090022001900320039069462846C0
:100AC000FFF78CFB4FF48040CDE9000469462846CF
:100AD0000294FFF783FB05B030BD000000380040F2
:100AE00000100240000C01402DE9F84F98461646D0
:100AF0008A460446FFF768FC814694F851000128B5
:100B00001ED1BAF1000F73D0002E71D094F85000AE
:100B1000012815D0012784F85070032084F8510073
:100B200000256565C4F830A0A686E686A563A5877E
:100B3000E58765642564A068B0F5004F03D00CE03C
:100B40000220BDE8F88F2068016821F040010160B3
:100B50002068016841F4804101602068016849060D
:100B600003D4016841F040010160E068B0F5006F16
:100B7000606803D048B3012E27D047E008B1012EAA
:100B80001FD1206B21680088C86006E0206881685A
:100B9000890709D5216B0988C160206B801C2063FF
:100BA000E08E401EE0860CE0FFF70EFCA0EB090192
:100BB000414503D3B8F1FF3F03D035E0B8F1000F52
:100BC00032D0E08E0028E1D123E0206B216800784C
:100BD000087306E02068816889070AD5216B0978C7
:100BE0000173206B401C2063E08E401EE0860DE008
:100BF0002BE0FFF7E9FBA0EB0901414503D3B8F176
:100C0000FF3F03D010E0B8F1000F0DD0E08E0028B8
:100C1000E0D14A464146204600F0CCFB08B12020F6
:100C20006065A06830B109E084F8517084F85050D4
:100C3000032086E72068C1688068009084F85170BE
:100C400004F8505F60680028F3D0012079E710B500
:100C5000401EB0F1807F01D3012010BD4FF0E02491
:100C600060610F21601700F04FFD0020A061072098
:100C70002061002010BD70B5040004D094F841003C
:100C8000002510B106E0012070BD84F840502046D8
:100C900000F024F8242084F841002068C16821F481
:100CA0000051C160204600F063FC2068016921F416
:100CB000904101612068416921F02A014161206869
:100CC000C16841F40051C1606564202084F841008E
:100CD00084F842006563002070BD000030B585B027
:100CE00000240094019402940394006814498842FB
:100CF00024D11448816941F480418161816901F402
:100D000080410491816941F00401816180690E4D47
:100D100000F0040004904FF4007000900220019055
:100D20000320039069462846FFF758FA2815CDE9B5
:100D30000004694628460294FFF750FA05B030BD1A
:100D40000038014000100240000801402DE9F8433E
:100D5000044690F84100984616460D46202802D0D9
:100D60000220BDE8F88385B17EB1002060642120B7
:100D700084F84100FFF728FBA6848146E684A0683A
:100D80002027B0F5805F02D003E00120E9E7206969
:100D900010B12E4600250EE000260CE080212046F2
:100DA00000F042FCA8B9C6B116F8010B21684860F2
:100DB000E08C401EE084E08C4B464FF00002CDF802
:100DC00000800028EAD14FF04001204600F02CFCC2
:100DD00040B184F841700320C3E735F8020BC0F33B
:100DE0000800E3E784F841700020BAE7FEE700005E
:100DF00030B585B000200090019002900390164815
:100E0000816941F020018161816901F02001049133
:100E1000816941F008018161816901F00801049153
:100E2000816941F00401816180690C4D00F004008A
:100E30004FF440740490002221462846FFF7BEFA82
:100E400001210320CDE90210CDE900416946284681
:100E5000FFF7C4F905B030BD00100240000C01409E
:100E60000F4810B50D4901604FF4827141600021B7
:100E70008160C1604FF400720161C0E90512C16177
:100E80000162416281620A21C162FFF799FD002877
:100E900003D0BDE81040FFF78DB910BD0038004009
:100EA000200000200C4810B50A4901604FF4E131E0
:100EB0004160002181600C22C160C0E9041281619F
:100EC000C161FFF7D8FE002803D0BDE81040FFF74E
:100ED00071B910BD0038014078000020FEE7FEE740
:100EE00003211420FFF759B910B54021152000F057
:100EF000D5FB0120FFF760F9142000F091F980077D
:100F000003D10321142000F0CCFABDE810401520D5
:100F100000F086B970B50646082188B0002408465E
:100F2000FFF73BF900210D2000F0B8FB80210E20D7
:100F3000FFF733F993208DF8040020208DF8050089
:100F400006A801AB0090022219460C2000F017F809
:100F500005000DD1002101A8425C7254425C491C7D
:100F60005440C9B20429F7D3405CA04200D0FE250A
:100F700080210E2000F095FA08B0284670BD2DE9BA
:100F8000FF5F0027FE25DDF838A016468B46814618
:100F9000B8460C2805D0B9F10E0F05D11227102044
:100FA00001E077273020804647F08001022000F0E2
:100FB00075FB80210420FFF7F0F80021012000F0EC
:100FC0006DFB80210A2000F06CFA002405E01BF87C
:100FD0000410092000F062FB641CB442F7D34946B8
:100FE000012000F05BFBB9F10C0F03D180210D2033
:100FF00000F057FA41F27076042000F011F904462F
:10100000761E04D0E00702D114EA080FF4D0802144
:101010000D20FFF7C2F836B1062000F001F910F0FC
:101020001B0F0CD0FE2580210C2000F03AFA002185
:10103000012000F033FB04B02846BDE8F09F0025F6
:101040003C40E00700D0FF25B9F10C0FEBD10A209E
:1010500000F0E6F804460C2000F0E2F810F007007B
:101060004FEAC40101D008390144CAF8001024B184
:10107000122C04D91224002603E00124FBE70026E9
:1010800005E0092000F0CCF803998855761CA642AB
:10109000F7D3C8E730B50C460546082187B00846A7
:1010A000FFF77BF807210D2000F0F8FA0321142048
:1010B00000F0F7F906A801AB00908DF8045001226A
:1010C00019460C20FFF75BFF10B90699102902D0D2
:1010D000FE2007B030BD9DF8041021709DF805106A
:1010E0006170F6E770B501221C4D54022146284676
:1010F000FFF764F90A2000F0D1FB002221462846C0
:10110000FFF75CF9642000F0C9FB01222146284664
:10111000FFF754F90A2000F0C1FB0F21012000F075
:10112000BDFA642000F0BAFB3D21112000F0B6FAB0
:101130001E212D2000F0B2FA00212C2000F0AEFA82
:101140008D212A2000F0AAFA3E212B2000F0A6FAD9
:101150004021152000F0A2FA002070BD000C0140D3
:101160007047000070B5164D4FF480740022214680
:101170002846FFF723F9FF230422AA211148FFF78D
:10118000B3FC012221462846FFF718F93220FFF769
:1011900013F8FFF7A7FF0A20FFF70EF8FFF7A2FFEB
:1011A0000A20FFF709F8FFF79BFE0A20FFF704F873
:1011B000FFF79AFEBDE8704003A000F095BA00006A
:1011C000000C014020000020524649442D4D46525B
:1011D0004335323220696E697420737563636565C7
:1011E000640D0A737461727420746F206465746591
:1011F00063742063617264210D0A000007490A6864
:10120000D2439207FBD4054A121D10600868C04300
:10121000C007FBD11068C0B270470000083800401A
:1012200070B5124E04464FF48075002229463046B0
:10123000FFF7C4F80A20FEF7BFFF7E2000EA440053
:1012400040F08000FFF7DAFF0A20FEF7B5FF00202C
:10125000FFF7D4FF04460A20FEF7AEFF012229461D
:101260003046FFF7ABF8204670BD0000000C01408F
:1012700038B529495220FFF70DFF00284AD12648EA
:101280000178042908D002290AD044290CD0082961
:1012900012D044290AD011E0407878B91FA00EE09E
:1012A000407858B921A00AE0417819B14078032864
:1012B00029D003E020A002E0407810B322A000F083
:1012C00013FA1548001DFFF725FE002822D120A0A3
:1012D00000F00AFA104C241DE0780090A3786278A0
:1012E00021781EA000F000FA207800F00F0100091C
:1012F00000EB800001EB4000C1B2292905D01AA003
:1013000004E020A0DBE721A0D9E723A0BDE8384016
:1013100000F0EAB938BD0000100000200D0A4D466B
:101320004F6E652D5335300D0A0000004D464F6E4F
:10133000652D5337300000004D462D556C74726199
:101340004C69676874000000556E6B6E6F776E00B5
:10135000436172642049642069733A0025642564FE
:10136000256425640D0A0000696E76616C6964204D
:101370006964203A2564EFBC8C6661696C64210D58
:101380000A0000004D462D50726F00004D4620446B
:10139000657369726500000076616C696420696438
:1013A000203A2025642C2073756363656564210DE4
:1013B0000A000000F8B515460E460B46009204469A
:1013C0000122022100F010F840B9334600228021AA
:1013D0002046009500F008F8002804D0606D40F029
:1013E000200060650320F8BD2DE9F8431E469146B4
:1013F00088460446089DFEF7E7FF401B351AFEF7B6
:10140000E3FF074625480068C0F3CB30684338E067
:10141000701C37D0FEF7D8FFC01BA84203D215B10D
:10142000009860B32CE02068416821F0E001416041
:101430006068B0F5827F0BD1A068B0F5004F02D094
:10144000B0F5806F04D12068016821F0400101608F
:10145000A06AB0F5005F09D12068016821F400514D
:1014600001602068016841F400510160012084F8A6
:101470005100002084F850000320BDE8F8830025C7
:10148000401E00902068816838EA010004D00021E5
:101490004945BDD10020F0E70121F9E70C0000200B
:1014A000704770B50C460546FFF7BAFE204340EA88
:1014B00004012846BDE8704000F0F0B8FEF78ABF8E
:1014C00030B58FB028216846FEF733FE14210AA8F4
:1014D000FEF72FFE01210804CDE90010002402943C
:1014E00002250491CDE907504FF4E01009906846B9
:1014F000FFF7D6F808B172B6FEE70F20CDE90A056E
:101500004FF48060CDE90C4002210AA80E94FEF74A
:10151000EBFF002801D072B6FEE70FB030BD704778
:1015200001680C3151E8002F22F4907241E8002349
:10153000002BF5D10168143151E8002F22F001028F
:1015400041E80023002BF5D1016B012909D1016885
:101550000C3151E8002F22F0100241E80023002B4B
:10156000F5D1202180F8421000210163704700006E
:1015700070B5044600680169E26821F440511143E6
:1015800001612169A0680843616908432168CA684C
:1015900041F20C639A430243CA6020684169A26920
:1015A00021F44071114341611E492068884202D1F3
:1015B000FFF740F801E0FFF72DF800EBC00101EB69
:1015C0000012606864218000B2FBF0F3B3FBF1F31A
:1015D0006FF018067343B2FBF0F5B2FBF0F605EBC3
:1015E0008305322303EB0515B5FBF1F5B6FBF1F6E8
:1015F00005F0F00505EB0615B2FBF0F6B2FBF0F0D6
:10160000B0FBF1F06FF01802504306EB800003EBE3
:101610000010B0FBF1F0216800F00F002844886052
:1016200070BD0000003801402DE9F8439846174688
:101630000D460446089E24E0701C22D0FEF7C4FE2E
:10164000A0EB0800B0421AD8CEB12068C1684907A3
:1016500017D5802D15D0402D13D00168C943090737
:101660000FD401680025406800902046FFF758FF1E
:101670000820606484F840500120BDE8F88303200E
:10168000FBE72068006835EA000004D00020B8427B
:10169000D2D00020F1E70120F9E7FEE72DE9F04183
:1016A000104E0F4604464FF48075002229463046FE
:1016B000FEF784FE0A20FEF77FFD7E2000EA44004C
:1016C000FFF79CFD0A20FEF777FD3846FFF796FDF1
:1016D0000A20FEF771FD29463046BDE8F04101229F
:1016E000FEF76CBE000C01400FB4054B10B503A90A
:1016F000044A029800F028F810BC5DF814FB0000C2
:10170000B11800081C0000200907090E002804DB9E
:1017100000F1E02080F80014704700F00F0000F1A5
:10172000E02080F8141D704702E008C8121F08C1AD
:10173000002AFAD170477047002001E001C1121F52
:10174000002AFBD1704700002DE9FF4F89B09B466E
:101750000446002506E025280BD05A460B999047F1
:10176000641C6D1C20780028F5D10DB02846BDE81A
:10177000F08F0027B8460122474900E0074314F8DC
:10178000013F203B02FA03F00842F7D120782E28CF
:1017900019D114F8010F47F004072A280ED06FF072
:1017A0002F022078A0F1300109290CD808EB88011C
:1017B00002EB410100EB0108641CF2E70A98641C8B
:1017C00050F8048B0A9020780028CED0642808D0E6
:1017D000692806D075281ED05A460B9990476D1C73
:1017E00058E00A994FF00A0901C90A91002802DA63
:1017F00040422D2102E0390504D52B218DF820101F
:10180000012103E0F90704D02021F7E78A4608AE5A
:101810000DE00021FAE70A994FF00A0901C90A917F
:10182000F7E74946FEF790FC303106F8011D002825
:10183000F7D1ADEB060000F12009780701D44FF095
:101840000108C84502DDA8EB090000E00020804641
:10185000002706E008A85A46C05D0B9990476D1C0A
:101860007F1C5745F6DB04E030205A460B99904721
:101870006D1CB8F10001A8F10108F5DC05E016F8CF
:10188000010B5A460B9990476D1CB9F10001A9F163
:101890000109F4DC641C65E709280100002103E06C
:1018A00000BF00BF00BF491C8142F9D37047000050
:1018B00013B54FF0FF33012269460248FFF746FA9D
:1018C00000981CBD78000020FEF78CFDFFF7F8FDA6
:1018D000FFF78EFAFFF7C4FAFFF7E4FAFFF742FCCE
:1018E0000A20FEF769FCFFF7C3FCF9E701020203D7
:1018F0000405060708090A0B0C0D0E0F1010000056
:1019000000000000000001020304060708090000AF
:101910000000010203040000381900080000002044
:101920002000000028170008581900082000002097
:10193000A00400003817000801000000100000009B
:101940000000000000127A0000000000000000000B
:0819500000000000000000008F
:04000005080000ED02
:00000001FF
